S00B00004C43442E7372656346
S11300000C942A000C9434000C9434000C943400A6
S11300100C9434000C9434000C9434000C9434008C
S11300200C9434000C9434000C9434000C9434007C
S11300300C9434000C9434000C9434000C9434006C
S11300400C9434000C9434000C9434000C9434005C
S11300500C94340011241FBECFE5D8E0DEBFCDBF21
S11300600E946C020C94BC020C9400004423B9F16D
S1130070413009F06BC0813089F028F08230C9F03A
S1130080833011F108952AB381E090E002C0880F13
S1130090991F6A95E2F7822B8ABB089527B381E002
S11300A090E002C0880F991F6A95E2F7822B87BB04
S11300B0089524B381E090E002C0880F991F6A95E7
S11300C0E2F7822B84BB089521B381E090E002C063
S11300D0880F991F6A95E2F7822B81BB08958130BE
S11300E091F028F08230D9F0833029F108952AB3B1
S11300F081E090E002C0880F991F6A95E2F780952D
S113010082238ABB089527B381E090E002C0880F60
S1130110991F6A95E2F78095822387BB089524B3DB
S113012081E090E002C0880F991F6A95E2F78095FC
S1130130822384BB089521B381E090E002C0880F3C
S1130140991F6A95E2F78095822381BB0895442321
S1130150B9F1413009F06BC0813089F028F0823068
S1130160C9F0833011F108952BB381E090E002C00F
S1130170880F991F6A95E2F7822B8BBB089528B3E9
S113018081E090E002C0880F991F6A95E2F7822B04
S113019088BB089525B381E090E002C0880F991FC1
S11301A06A95E2F7822B85BB089522B381E090E043
S11301B002C0880F991F6A95E2F7822B82BB0895CB
S11301C0813091F028F08230D9F0833029F10895FC
S11301D02BB381E090E002C0880F991F6A95E2F783
S11301E0809582238BBB089528B381E090E002C000
S11301F0880F991F6A95E2F78095822388BB08953A
S113020025B381E090E002C0880F991F6A95E2F758
S11302108095822385BB089522B381E090E002C0DB
S1130220880F991F6A95E2F78095822382BB08950F
S1130230CF93C82F40E061E081E00E94A70040E036
S113024062E081E00E94A70040E063E081E00E9458
S1130250A7008BB39C2F907F8F70892B8BBB41E0C1
S113026063E081E00E94A7002FEF81EE94E021502B
S113027080409040E1F700C0000040E063E081E08E
S11302800E94A70020E1C29FC00111249BB39F706C
S1130290892B8BBB41E063E081E00E94A7008FEFD4
S11302A091EE24E0815090402040E1F700C000002E
S11302B040E063E081E00E94A7008FE19EE40197A3
S11302C0F1F700C00000CF91089541E061E081E0C2
S11302D00E94360041E062E081E00E94360041E085
S11302E063E081E00E94360041E064E080E00E9427
S11302F0360041E065E080E00E94360041E066E0BF
S113030080E00E94360041E067E080E00E94360011
S11303102FEF81EE94E0215080409040E1F700C03F
S1130320000083E30E94180182E30E94180188E21E
S11303300E9418018CE00E94180181E00E941801BB
S113034086E00E94180182E00E9418010895CF936C
S1130350C82F41E061E081E00E94A70040E062E034
S113036081E00E94A70040E063E081E00E94A700D2
S11303708BB39C2F907F8F70892B8BBB41E063E004
S113038081E00E94A7008FE99FE00197F1F700C088
S1130390000040E063E081E00E94A70020E1C29FEA
S11303A0C00111249BB39F70892B8BBB41E063E098
S11303B081E00E94A7008FE39CE90197F1F700C058
S11303C0000040E063E081E00E94A7008FE19EE42A
S11303D00197F1F700C00000CF9108958F929F928A
S11303E0AF92BF92CF92DF92EF92FF920F931F933F
S11303F0CF93DF93CDB7DEB76B017C018DB69EB68C
S11304009B01AC0110E009C0CA01B9012AE030E047
S113041040E050E00E947B021F5F21153105410539
S1130420510591F78DB79EB7811B91090FB6F894CA
S11304309EBF0FBE8DBF01965C0100E011C0C701D5
S1130440B6012AE030E040E050E00E947B02F50172
S1130450E00FF11D6083C22ED32EE42EF52E0F5F24
S1130460C114D104E104F10451F70AC0E12FF0E012
S11304703197EA0DFB1D8081805D0E94A701115018
S11304801111F4CF0FB6F8949EBE0FBE8DBEDF914E
S1130490CF911F910F91FF90EF90DF90CF90BF907D
S11304A0AF909F908F900895CF93DF9300D0CDB7F6
S11304B0DEB790E8998390EC9A83E1E0F0E0EC0FEA
S11304C0FD1FE80FF11D8081860F0E9418010F9017
S11304D00F90DF91CF9108950E94650166E080E05E
S11304E00E94540267EE74E080E090E00E94EE0106
S11304F080E090E00895052E97FB1EF400940E947E
S1130500920257FD07D00E949A0207FC03D04EF4D2
S11305100C94920250954095309521953F4F4F4F42
S11305205F4F089590958095709561957F4F8F4F9B
S11305309F4F0895A1E21A2EAA1BBB1BFD010DC0FB
S1130540AA1FBB1FEE1FFF1FA217B307E407F5077F
S113055020F0A21BB30BE40BF50B661F771F881F5B
S1130560991F1A9469F760957095809590959B01F1
S10F0570AC01BD01CF010895F894FFCF49
S9030000FC
